:100000000C9462000C948A000C948A000C948A0070
:100010000C948A000C948A000C948A000C948A0038
:100020000C948A000C948A000C948A000C94A20010
:100030000C948A000C948A000C948A000C948A0018
:100040000C9414030C948A000C941F020C9451021B
:100050000C948A000C948A000C948A000C948A00F8
:100060000C948A000C948A00000000080002010031
:100070000003040700000000000000000102040863
:100080001020408001020408102001020408102002
:10009000040404040404040402020202020203032E
:1000A00003030303000000002300260029000000D2
:1000B0000000250028002B0000000000240027007D
:1000C0002A00810211241FBECFEFD8E0DEBFCDBFD2
:1000D00011E0A0E0B1E0E8E0F9E002C005900D9287
:1000E000A032B107D9F721E0A0E2B1E001C01D9232
:1000F000AE3EB207E1F710E0C4ECD0E004C02297B6
:10010000FE010E947E04C23CD107C9F70E9405038C
:100110000C9482040C94000060E082E00C9487014F
:1001200082E00E94F60190932101809320010197C3
:1001300019F464E071E002C06CE071E088E491E0E1
:100140000C9402031F920F920FB60F9211242F935B
:100150003F934F935F936F937F938F939F93AF934F
:10016000BF93EF93FF938091230187FF05C0109207
:100170008500109284001AC020912301332727FDA7
:1001800030958091220190E0281739077CF4809106
:100190002301992787FD9095FC01EE0FFF1FE80FC3
:1001A000F91FEC5DFE4F808186FD15C08091230113
:1001B0008F5F8093230120912301332727FD309502
:1001C0008091220190E028173907BCF48091230127
:1001D0008C305CF112C080912301992787FD9095A6
:1001E000FC01EE0FFF1FE80FF91FEC5DFE4F808151
:1001F00060E08F730E94C001D9CF809184009091FC
:100200008500049680349C4918F480E49CE905C07C
:10021000809184009091850004969093890080934A
:1002200088008FEF8093230138C0209184003091A3
:10023000850080912301992787FD9095FC01EE0FA1
:10024000FF1FE80FF91FEC5DFE4F81819281820F45
:10025000931F9093890080938800809123019927B0
:1002600087FD9095FC01EE0FFF1FE80FF91FEC5D75
:10027000FE4F808186FF11C080912301992787FD61
:100280009095FC01EE0FFF1FE80FF91FEC5DFE4F8C
:10029000808161E08F730E94C001FF91EF91BF9157
:1002A000AF919F918F917F916F915F914F913F910E
:1002B0002F910F900FBE0F901F901895833081F0F3
:1002C00028F4813099F08230A1F008958730A9F0A8
:1002D0008830B9F08430D1F4809180008F7D03C0E4
:1002E000809180008F7780938000089584B58F7708
:1002F00002C084B58F7D84BD08958091B0008F7752
:1003000003C08091B0008F7D8093B0000895CF939B
:10031000DF9390E0FC01E458FF4F2491FC01E0578B
:10032000FF4F8491882349F190E0880F991FFC01C9
:10033000E854FF4FA591B49182559F4FFC01C591A0
:10034000D4919FB7611108C0F8948C9120958223B5
:100350008C93888182230AC0623051F4F8948C9186
:10036000322F309583238C938881822B888304C01D
:10037000F8948C91822B8C939FBFDF91CF9108953D
:100380000F931F93CF93DF931F92CDB7DEB7282F24
:1003900030E0F901E859FF4F8491F901E458FF4F2B
:1003A0001491F901E057FF4F04910023C9F088230D
:1003B00021F069830E945E016981E02FF0E0EE0F79
:1003C000FF1FE255FF4FA591B4919FB7F8948C9110
:1003D000611103C01095812301C0812B8C939FBFB5
:1003E0000F90DF91CF911F910F910895CF93DF93DD
:1003F000282F30E0F901E859FF4F8491F901E458C2
:10040000FF4FD491F901E057FF4FC491CC2391F0F5
:1004100081110E945E01EC2FF0E0EE0FFF1FEC5502
:10042000FF4FA591B4912C912D2381E090E021F410
:1004300080E002C080E090E0DF91CF9108951F92AC
:100440000F920FB60F9211242F938F939F93EF93D8
:10045000FF93E0915801F09159018081E0915E0194
:10046000F0915F0182FD12C09081809161018F5FE8
:100470008F7320916201821751F0E0916101F0E0E9
:10048000E85BFE4F958F8093610101C08081FF91F1
:10049000EF919F918F912F910F900FBE0F901F9012
:1004A00018951F920F920FB60F9211242F933F931E
:1004B0004F935F936F937F938F939F93AF93BF936C
:1004C000EF93FF9388E491E00E94D403FF91EF91B2
:1004D000BF91AF919F918F917F916F915F914F915C
:1004E0003F912F910F900FBE0F901F90189588E4A9
:1004F00091E00E94990321E0892B09F420E0822FEA
:10050000089510924B0110924A0188EE93E0A0E00A
:10051000B0E080934C0190934D01A0934E01B093B5
:100520004F0184E191E0909349018093480185EC6B
:1005300090E0909355018093540184EC90E0909367
:1005400057018093560180EC90E09093590180937D
:10055000580181EC90E090935B0180935A0182EC0A
:1005600090E090935D0180935C0186EC90E0909325
:100570005F0180935E0110926101109262011092FE
:100580006301109264010895CF92DF92EF92FF927F
:100590000F931F93CF93DF937C016A01EB0100E07F
:1005A00010E00C151D0571F06991D701ED91FC91DA
:1005B0000190F081E02DC7010995892B19F00F5F9B
:1005C0001F4FEFCFC801DF91CF911F910F91FF9087
:1005D000EF90DF90CF9008956115710581F0DB01F8
:1005E0000D900020E9F7AD0141505109461B570B12
:1005F000DC01ED91FC910280F381E02D099480E013
:1006000090E008950C94EC0208950E945E030E940D
:1006100004030E948C00C6ECD3E00E949000209757
:10062000E1F30E94C603F9CF1F920F920FB60F920B
:1006300011242F933F938F939F93AF93BF938091F8
:10064000E6019091E701A091E801B091E9013091B4
:10065000E50123E0230F2D3720F40196A11DB11DE4
:1006600005C026E8230F0296A11DB11D2093E501C8
:100670008093E6019093E701A093E801B093E9012C
:100680008091EA019091EB01A091EC01B091ED0114
:100690000196A11DB11D8093EA019093EB01A093F7
:1006A000EC01B093ED01BF91AF919F918F913F917C
:1006B0002F910F900FBE0F901F901895789484B5CE
:1006C000826084BD84B5816084BD85B5826085BD4E
:1006D00085B5816085BDEEE6F0E080818160808334
:1006E000E1E8F0E010828081826080838081816017
:1006F0008083E0E8F0E0808181608083E1EBF0E0DE
:10070000808184608083E0EBF0E080818160808381
:10071000EAE7F0E08081846080838081826080836A
:100720008081816080838081806880831092C10095
:100730000895FC01818D228D90E0805C9F4F821B8B
:1007400091098F7399270895FC01918D828D9817D7
:1007500031F0828DE80FF11D858D90E008958FEFC7
:100760009FEF0895FC01918D828D981761F0828D25
:10077000DF01A80FB11D5D968C91928D9F5F9F73D5
:10078000928F90E008958FEF9FEF089587E792E0B2
:10079000892B49F080E090E0892B29F00E947702B4
:1007A00081110C9400000895FC01848DDF01A80FD5
:1007B000B11DA35ABF4F2C91848D90E001968F7389
:1007C0009927848FA689B7892C93A089B1898C91A8
:1007D00080648C93938D848D981306C00288F3896E
:1007E000E02D80818F7D80830895CF93DF93EC018E
:1007F000888D8823C9F0EA89FB89808185FD05C041
:10080000A889B9898C9186FD0FC00FB607FCF5CF7A
:10081000808185FFF2CFA889B9898C9185FFEDCFC2
:10082000CE010E94D403E7CFDF91CF910895CF92FC
:10083000DF92FF920F931F93CF93DF931F92CDB759
:10084000DEB76C0181E0D60158968C9358975B9681
:100850009C915B975C968C915C97981307C050961F
:10086000ED91FC915197808185FD2EC0F601038D9D
:1008700010E00F5F1F4F0F731127F02EF601848DCC
:10088000F81211C00FB607FCF9CFD6015096ED91C2
:10089000FC915197808185FFF1CFC60169830E9449
:1008A000D4036981EBCF838DE80FF11DE35AFF4F2D
:1008B0006083D6015B960C935B975296ED91FC9109
:1008C0005397808180620CC0D6015696ED91FC91C1
:1008D000579760835096ED91FC9151978081806489
:1008E000808381E090E00F90DF91CF911F910F9175
:1008F000FF90DF90CF900895EE0FFF1F0590F491C9
:08090000E02D0994F894FFCFEB
:100908000100000050726573736564004F666600ED
:10091800000000001704C4029903B203A403F503FE
:00000001FF
